:020000040800F2
:1000000088110020490100085F350008612E0008B2
:100010005D350008A10A0008353B0008000000001B
:100020000000000000000000000000006335000830
:10003000DB0A000800000000613500086535000893
:100040006301000863010008630100086301000800
:1000500063010008630100086301000863010008F0
:1000600063010008DD0A0008E30A0008A50A000889
:1000700063010008630100086301000863010008D0
:1000800063010008630100086301000863010008C0
:1000900063010008630100086301000863010008B0
:1000A00063010008E53500086301000863010008EA
:1000B0006301000863010008630100086301000890
:1000C0006301000863010008630100086301000880
:1000D000630100081D3B000863010008293B00087C
:1000E0006301000863010008630100086301000860
:1000F0006301000863010008630100086301000850
:10010000630100086301000863010008630100083F
:100110006301000863010008F1350008630100086D
:10012000630100086301000863010008630100081F
:10013000DFF810D000F0ECFB00480047A1450008B4
:10014000AFF300808811002006488047064800472A
:10015000FEE7FEE7FEE7FEE7FEE7FEE7FEE7FEE777
:10016000FEE7FEE7E335000831010008202A04DB42
:10017000203A21FA02F00021704721FA02F3D04020
:10018000C2F12002914008431946704740EA01033A
:100190009B0703D009E008C9121F08C0042AFAD23D
:1001A00003E011F8013B00F8013B521EF9D2704701
:1001B000D2B201E000F8012B491EFBD270470022A9
:1001C000F6E710B513460A4604461946FFF7F0FF56
:1001D000204610BD421C10F8011B0029FBD1801ADB
:1001E0007047F0B480EA0102D40F4200B2EB410F35
:1001F00002D20246084611464A0042D0C30DDDB283
:10020000C1F3C752AD1A202D35DAC1F3160141F4FE
:10021000000204B15242C5F1200602FA06F12A4159
:100220001044B3EBD05F23D0C4B1012DA0EBC35079
:1002300009DCF0BC4FF0004202EAC352DBB200F529
:10024000000000F0AABA400000F1807000EBC3503B
:10025000A0F1807040EAD170490009E0490841EA04
:10026000C071A0EBC35000F50000400800EBC35084
:10027000F0BC00F089BA6142012202EB4101001B8F
:10028000F6E7F0BC704781F00041AAE780F000403B
:10029000A7E780EA010210B502F00043400022D037
:1002A0004A001FD0010E01EB1261C0F35600C2F3E9
:1002B000560240F4000042F40002A0FB02200004B9
:1002C0007F39140400D0401C50EA124001D4400091
:1002D000491EC2B20C0604EBD010401C4008802A14
:1002E00002D003E0002010BD20F00100002900DA58
:1002F0000020184310BD2DE9FE4F804681EA03001F
:10030000C00F0C46009021F0004123F00045B8EBEF
:100310000200A94105D24046214690461C460B46A4
:10032000024623F00040104347D0270DC7F30A00D0
:10033000C3F30A510290401A019040286BDAC3F3CC
:10034000130040F4801B0098924620B10023D2EBAA
:10035000030A63EB0B0B01985946C0F1400250466B
:1003600000F0F1F906460D4650465946019A00F054
:10037000F9F910EB08006141002487EA115284EA80
:10038000E7731A4340D0009A62B3019A012A4FEAF8
:10039000075215DC001B61EB02014FF0004202EA3C
:1003A0000752CDE90042001C41F5801132462B4630
:1003B00000F030FA03B0BDE8F08F40462146F9E77F
:1003C000001B61EB0201001C41F5801300185B412A
:1003D0002018A2F5001747EB030140EAD570B619C3
:1003E0006D4111E06D084FEA360645EAC0754FEAE7
:1003F0000752001B61EB0201001C41F58011490806
:100400004FEA30000019514132462B4603B0BDE897
:10041000F04F00F0F0B90098012240000023D0EB2B
:10042000020263EBE073009821464FEAE074B8EBF8
:10043000000061EB0401E9E783F000435BE781F032
:10044000004158E72DE9FE4F81EA030404F000441F
:1004500021F0004100944FF0000B23F0004350EADC
:1004600001045ED052EA03045BD0C3F30A54C1F323
:100470000A552C44A4F2F3340194A0FB0254C1F3B6
:10048000130141F48011C3F3130343F4801301FB00
:10049000024400FB034E840A970A44EA815447EA67
:1004A0008357A4FB076802958D0A05FB07854FEA71
:1004B000932C04FB0C542705029D4FEA065847EA8B
:1004C0001637B5EB08056EEB070C870E920E47EA60
:1004D000811742EA8312A7FB0201B6EB0B0164EB22
:1004E00000042B0D43EA0C335E1844EB1C50DA4633
:1004F0005146E7FB0201C5F313044FEA0B3343EA0D
:1005000014534FEA0432019C43EA0603A4F10C049D
:100510000294009CCDE900B400F07CF903B0BDE882
:10052000F08F00200146F9E72DE9F04D81EA030440
:1005300004F0004B21F0004514464FF0000A23F070
:10054000004150EA050220D054EA01021DD0C5F353
:100550000A570246C5F31303C1F31300C1F30A5649
:1005600040F4801543F48013A7EB0608101BD64611
:1005700008F2FD3873EB050002D308F1010801E031
:1005800092185B41B8F1000F03DA00200146BDE884
:10059000F08D00204FF48011064684460EE0171BB4
:1005A00073EB050705D3121B63EB050306434CEA07
:1005B000010C49084FEA300092185B4150EA0107EC
:1005C000EDD152EA030012D082EA040083EA050169
:1005D000084305D0101BAB4106D20122002306E0E0
:1005E00000224FF0004302E06FF0010253101AEBBB
:1005F00006004CEB085110EB0A0041EB0B01BDE883
:10060000F04D00F0F8B80EB5C10F80EAE070084474
:10061000CA07002140F233438DE80E000A460B461C
:1006200000F0F8F803B000BD00F0004220F00040F8
:10063000C10DC0F3160040F400007F2901DA00204C
:100640007047962903DCC1F19601C84001E0963954
:100650008840002AF4D04042704700F0004230F059
:1006600000400AD0C10D01F56071C0F3160042EAE6
:100670000151C208400711437047002001467047EE
:1006800001F0004330B421F0004150EA010206D0ED
:100690000A0DA2F56072C1F31301002A02DC30BC1E
:1006A00000207047440F44EAC104C100E01830BC88
:1006B00000EBC25000F068B830B50B460146002090
:1006C0002022012409E021FA02F59D4205D303FA14
:1006D00002F5491B04FA02F52844151EA2F1010295
:1006E000F1DC30BD2DE9F05F0546002092469B46C7
:1006F00088460646814640241BE028464146474638
:100700002246FFF733FD53465A46C01A914110D393
:1007100011461846224600F016F82D1A67EB01081C
:100720004F4622460120002100F00DF817EB00098A
:100730004E41201EA4F10104DFDC484631462A4622
:100740004346BDE8F09F202A04DB203A00FA02F17C
:10075000002070479140C2F1200320FA03F31943AF
:1007600090407047202A06DBCB17203A41FA02F06E
:1007700043EAE07306E041FA02F3D040C2F12002FE
:1007800091400843194670470029A8BF7047401C94
:10079000490008BF20F00100704710B4B0FA80FC97
:1007A00000FA0CF050EA010404BF10BC704749B1D4
:1007B000CCF1200421FA04F411FA0CF118BF012144
:1007C00021430843A3EB0C01CB1D4FEA00614FEA24
:1007D000102042BF002010BC704700EBC3501044F3
:1007E0000029A4BF10BC7047401C490008BF20F07E
:1007F000010010BC704710B5141E73F1000408DA34
:10080000401C41F1000192185B411A4301D120F0D4
:10081000010010BD2DE9F04D92469B4611B1B1FA91
:1008200081F202E0B0FA80F220329046FFF78BFFAF
:1008300004460F4640EA0A0041EA0B0153465A4675
:10084000084313D0114653EA010019D0C8F1400201
:100850005046FFF78BFC05460E4650465946424629
:10086000FFF771FF084305D0012004E02046394618
:10087000BDE8F08D0020054346EAE0762C4337437F
:100880000A986305E40AA0EB08000022FD0A44EA86
:1008900047540A3002D500200146E9E70105101946
:1008A0006941DDE9084500196941BDE8F04DA2E75D
:1008B000C1F30A52C1F3130140F2FF3341F4801136
:1008C0009A4202DA00200146704740F233439A42CE
:1008D000A2F2334202DC5242FFF748BCFFF733BFBB
:1008E00030B5041E71F1000404DB4FF000444042B7
:1008F00064EB0101141E73F1000405DB1C464FF08C
:100900000043524263EB0403994208BF904230BD5A
:10091000064C074D06E0E06840F0010394E807004C
:1009200098471034AC42F6D3FFF706FC305A000863
:10093000505A000870B5044600688168C943C90769
:1009400017D1816821F00101816000F00FFF054699
:100950000AE000BF00F00AFF401B022804D920680B
:100960008068C043C00706D020688068C043C007C5
:10097000F0D0002070BDA06A40F01000A062E06AD4
:1009800040F00100E062012070BD10B50146406AF0
:10099000826A12F0500F05D0006A026BBDE8104069
:1009A00008461047816A41F40071816201688968D4
:1009B000C1F3424107290CD1017B51B9816A21F46D
:1009C00080718162816AC90403D4816A41F00101A6
:1009D000816200F075F910BD10B5406A816A41F07E
:1009E00040018162C16A41F00401C16200F077F9FF
:1009F00010BD10B5406A00F071F910BDF8B50026C1
:100A00000446009600688168C943C9072DD08168F3
:100A100041F001018160164816490068B0FBF1F011
:100A200000E0401E00900028FBD100F09FFE05462C
:100A300016E000BF00F09AFE401B022810D9206883
:100A40008068C043C0070BD0A06A40F01000A062CD
:100A5000E06A40F00100E06284F824600120F8BD03
:100A600020688068C043C007E4D10020F8BD0000C2
:100A70004400002040420F0030B50849002547F6E9
:100A8000FF730A682C46412805D0532802D195638C
:100A90000868446230BD9363FAE70000200C002030
:100AA000FEE70000014800F09DBB0000F80A0020AE
:100AB00030B590F840500124AC40C56B6C600468C0
:100AC00063604368102B036803D099600068C260BC
:100AD00030BD9A600068C16030BD7047082000F0EA
:100AE0002FBD102000F02CBD72B6FEE7F8B5002532
:100AF0000446009590F8240001280BD0012084F8CA
:100B000024002046FFF716FF2046FFF777FF060078
:100B100002D050E00220F8BDA06A20F4885040F0D6
:100B20000200A062022001F049F825490968B1FBE2
:100B3000F0F0400000E0401E00900028FBD120684B
:100B4000816841F00801816000F010FE074608E06E
:100B500000F00CFEC01B0A2803D92068806800073B
:100B600015D4206880680007F2D42068816841F0BD
:100B70000401816000F0FAFD074612E000F0F6FD86
:100B8000C01B0A280DD920688068400709D5A06AD3
:100B900020F0020040F01000A06284F824500120F0
:100BA000F8BD206880684007E8D4A06A20F0020001
:100BB00040F00100A06284F824503046F8BD0000E7
:100BC00044000020F8B50024009490F82420254625
:100BD000012A12D0012280F824204A681F23072A04
:100BE0000DD20668776B521E02EB820293409F4340
:100BF0000B6893401F43776319E00220F8BD066835
:100C00000D2A0AD2376BD21F02EB820293409F4318
:100C10000B6893401F43376309E0F76A0D3A02EB14
:100C2000820293409F430B6893401F43F7620A6818
:100C3000072306680A2A0AD3F7680A3A02EB420237
:100C400093409F438B6893401F43F76008E03769E8
:100C500002EB420293409F438B6893401F433761EE
:100C60000A68102A01D0112A20D1124B02689A4238
:100C700017D193681B0219D4936843F4000393605F
:100C80000968102912D10C490C4A0968B1FBF2F12C
:100C900001EB8101490000E0491E00910029FBD1D0
:100CA00004E0816A41F020018162012480F824502F
:100CB0002046F8BD002401404400002040420F00BF
:100CC000044910B5884204D1084600F009F80249E9
:100CD000088010BDC80A00208C0A002070477047A9
:100CE0000068C06C704700002DE9F04104004FF02F
:100CF00000057FD0A06A002628B9E66284F8246047
:100D0000204600F081F82046FFF714FEA16AC906CC
:100D100000D420B1A06A40F01000A0626AE0A16A8D
:100D200021F4885141F00201A162334923688B42CA
:100D3000E16904D1B1F5402F01D14FF40021277BA7
:100D40004FF4807C41EA470261680A43A16861452B
:100D500008D0012906D0002194F814E0BEF1010F5B
:100D600002D00AE06146F7E7C7B1A76A47F020075B
:100D7000A762E76A47F00107E7625F6827F46947FF
:100D80000F435F60236899681C4F39401143996095
:100D9000A16861450BD0012909D00CE0DFF860E0C3
:100DA000A7690EEB47370F4347F40061E5E7218A57
:100DB0000D05A5F580152168CB6A23F470032B433C
:100DC000CB62216889680F4B1940914208D1E662D5
:100DD000A16A21F0020141F00101A162BDE8F081A8
:100DE000A06A20F0020040F01000A062E06A40F02B
:100DF0000100E0620120F1E7003C0140FDF7E1FF66
:100E000000E0FFFFFE0E1FFFF0B585B0002506468F
:100E100000950195029503950068194988422DD1E6
:100E20001849886940F400708861886900F400708E
:100E30000490886940F0040088618869802700F088
:100E4000040004900320CDE9007069460E4800F0CC
:100E500083FB0F4C0D48C4E900058015A560C4E96B
:100E60000370800060612020C4E90605204600F080
:100E7000DDFA08B1FFF738FE3462666205B0F0BDF6
:100E80000024014000100240000801400800024018
:100E9000F80A00202DE9F047894604463B490068DE
:100EA0003B4F0E1D9046884201D0B84207D13068B2
:100EB00010F4702F03D001252846BDE8F08794F880
:100EC000240001280CD0012084F824002046FFF7DC
:100ED00095FD05004FF0000004D084F82400EBE7F6
:100EE0000220EAE7A16A40F60162914341F4807171
:100EF000A1622168B94218D1326812F4702F14D05F
:100F0000A16A41F48011A1623168490505D5A16A41
:100F100021F4005141F48051A162A16AC9040AD5AB
:100F2000E16A21F00601E16206E0A26A22F4801281
:100F3000A2624968E9E7E06284F82400216A154862
:100F40008862216A1448C862216A144808632168CB
:100F50006FF0020008602068816841F48071816050
:100F6000216843464A464C31206A00F09DFA2068C9
:100F70008168C1F342410729816803D041F480119F
:100F8000816099E741F4A001FAE7000000240140E4
:100F9000002801408B090008F3090008D90900085E
:100FA00070B5044690F8240001280DD0012084F883
:100FB00024002046FFF722FD02004FF0000005D07C
:100FC00084F82400104670BD022070BDA16A40F66E
:100FD0000163994341F48071A162224D2368224943
:100FE000AB4218D10E6816F4702F14D0A66A46F4DE
:100FF0008016A6620E68760505D5A66A26F4005608
:1010000046F48056A662A66AF6040AD5E66A26F079
:101010000606E66206E0A66A26F48016A6625E6808
:10102000E9E7E06284F824006FF0020018602068AD
:10103000436843F02003436020688368C3F342435E
:10104000072B05D1A84208D1096811F4702F04D0EC
:10105000816841F480118160B4E7816841F4A001A6
:10106000F9E70000002801400424014010B590F881
:1010700021100022022905D00421816380F820205C
:10108000012010BD01680B6823F00E030B6001689E
:101090000B6823F001030B6090F84030C46B012112
:1010A00001FA03F3636080F8211080F820201046D5
:1010B00010BD00002DE9F05F90F8211000240229F6
:1010C00003D004218163012485E001680A6822F0CD
:1010D0000E020A6001680A6822F001020A603F4EAF
:1010E0003E4FB215DFF8F4C0DFF8F090DFF8ECA067
:1010F000DFF8E8B0DFF8E4E00168783F130115029B
:10110000ACF1640CA9F15009AAF13C0AABF1280B2F
:10111000AEF1140E4FF48018B14227D9B9420ED067
:10112000614512D049451DD0514518D0594518D0B8
:10113000714501D1424615E0294EB14201D101224B
:1011400010E0274E1436B14201D110220AE0244E9D
:101150002836B14206D0224A3C32914201D11A4689
:1011600000E02A461E49091F0A602BE0B94213D04D
:10117000614517D0494522D051451DD059451DD054
:10118000714501D142461AE0B14202D14FF080725E
:1011900015E0134EB14201D1012210E0104E143679
:1011A000B14201D110220AE00D4E2836B14206D0DC
:1011B0000B4A3C32914201D11A4600E02A460749C7
:1011C00080394A60012180F82110002180F8201028
:1011D000416B01B188472046BDE8F09F8000024086
:1011E000080402402DE9F05FC16B0A6801680B68D2
:1011F000046C4FF0040808FA04F8844D844E854FBF
:10120000DFF814C2DFF81492DFF814A2DFF814B28A
:10121000DFF814E218EA020F65D05FEA437862D57E
:101220000A68920603D40A6822F004020A60DFF812
:10123000F0814FF48062016808F114081301140270
:10124000414524D9A9420DD0B1420FD0B9421AD09C
:10125000614515D0494515D0514501D1120312E021
:10126000594501D104220EE0714501D140220AE026
:101270006D4D1435A94206D06B4A2832914201D1F6
:101280001A4600E022466749091F0A6029E0A94280
:1012900013D0B14215D0B94220D061451BD0494589
:1012A0001BD0514502D14FF4800217E0414502D1D5
:1012B0004FF0806212E0594501D104220EE07145E1
:1012C00001D140220AE0584D1435A94206D0564AB1
:1012D0002832914201D11A4600E022464B49083992
:1012E0004A60C16A71E04FF0020808FA04F818EA8F
:1012F000020F70D05FEA83786DD50A68920606D433
:101300000A6822F00A020A60012180F82110DFF841
:1013100010814FF40072016808F1140813011402DF
:10132000414524D9A9420DD0B1420FD0B9421AD0BB
:10133000614515D0494515D0514501D1120312E040
:10134000594501D102220EE0714501D120220AE067
:10135000354D1435A94206D0334A2832914201D185
:101360001A4600E022462F49091F0A6029E0A942D7
:1013700013D0B14215D0B94220D061451BD04945A8
:101380001BD0514502D14FF4001217E0414502D164
:101390004FF0007212E0594501D102220EE0714572
:1013A00001D120220AE0204D1435A94206D01E4A60
:1013B0002832914201D11A4600E0224613490839E9
:1013C0004A60002180F82010816A00291CD0BDE805
:1013D000F05F0847FFE70825A540154214D01A071B
:1013E00012D50A6822F00E020A6090F84020C36B02
:1013F000012101FA02F25A60816380F82110002174
:1014000080F82010016BE0E7BDE8F09F0800024083
:101410001C000240300002404400024058000240DC
:101420006C000240080402401C04024030B560B168
:101430001A4B026814219A4209D2194B1344B3FB88
:10144000F1F18900016417490AE0012030BD134B16
:101450005B421344B3FBF1F1890001640F49083981
:10146000C163022180F82110136843F6F0718B43A9
:10147000F0E901142143D0E902452C4321430469DA
:1014800021434469214384692143194311600021A8
:101490004163012242770177084630BD08040240CB
:1014A000F8FFFDBF0000024070B5044690F8200030
:1014B000002501280CD0012084F8200094F8216038
:1014C0000020012E06D084F820000225284670BD99
:1014D000022070BD022684F82160A063206806689F
:1014E00026F0010606602046FFF7E2FAE06A0028CF
:1014F0002068016802D041F00E0106E021F00401ED
:1015000001602068016841F00A01016020680168FB
:1015100041F001010160D9E770B5044600F026F9F9
:101520000546601C02D004480078044400F01EF90F
:10153000401BA042FAD370BD380000207047000065
:10154000044910B50A68024202D00860FFF7F6FFAE
:1015500010BD0000140401402DE9F84FDFF8C891D8
:101560000024A9F1040B23460F2709F1040AABF16B
:10157000040ED1E00125A54006EA0502AA4276D173
:10158000DFF8A8C14E68A6EB0C0866452BD00DDC31
:10159000032E34D005DC36B3012E19D0022E2FD104
:1015A0001BE0112E16D0122E2AD119E0B8F5881F93
:1015B00019D006DCB8F5803F15D0B8F5801F1FD1D3
:1015C00011E0B8F5001F0ED0B8F5041F18D10AE0DD
:1015D000CB6815E0CB681B1D12E0CB6808330FE029
:1015E000CB680C330CE08B682BB1012B4FF0080358
:1015F00003D0456104E0042302E0056100E000231C
:10160000FF2A01D8064601E000F104064FEA8405EE
:1016100001D9A5F12005D6F8008007FA05FC28EAD3
:101620000C0803FA05F548EA0508C6F800804D687D
:10163000ED0070D53E4DAE6946F00106AE61AD6974
:1016400024F0030605F0010500953A4D06EB050C64
:10165000DCF80850A607360F07FA06F825EA080551
:10166000DFF8D480404503D14FF0000825E052E078
:10167000DFF8C880404502D14FF001081DE0DFF8D7
:10168000C080404502D14FF0020816E0DFF8B48078
:10169000404502D14FF003080FE0DFF8AC80404531
:1016A00002D14FF0040808E0DFF8A080404502D1E5
:1016B0004FF0050801E04FF0060808FA06F848EA7E
:1016C0000508CCF808804D68D9F80060ED024D4659
:1016D00001D5164300E096432E604D68DAF80060AD
:1016E000AD02554601D5164300E096432E604D6885
:1016F000DBF80060AD035D4601D5164300E096437C
:101700002E604D68DEF80060ED03754601D5164386
:1017100000E096432E60641C0A681646E2407FF49F
:1017200029AFBDE8F88F0000080401400000111047
:10173000001002400000014000080140000C014080
:10174000001001400014014000180140001C01403D
:10175000C26821EA02030A4043EA0241016170477C
:101760000AB1016170470904FBE700000148806885
:10177000704700003800002070B5040025D094F8B0
:101780003D00002520B984F83C50204600F050F977
:10179000242084F83D002068016821F001010160E7
:1017A0002068016841F4004101602068016821F46B
:1017B0000041016000F06AFB4D4A6168914201D826
:1017C0004C4900E04C49884201D2012070BD4B4990
:1017D0002368B0FBF1F15E6826F03F060E435E60C1
:1017E0006368934206D94FF4967359434FF47A7362
:1017F000B1FBF3F12368491C1E6A26F03F06314312
:1018000019626168914210D84900401EB0FBF1F2A4
:10181000521CC2F30B02042A01D2042022E0B0FBC6
:10182000F1F0401CC0F30B001CE0A268F2B301EB26
:10183000C10303EB0116431EB3FBF6F35B1C43F439
:1018400080431B0549D092B301EBC10202EB0111A9
:10185000401EB0FBF1F0401CC0F30B0040F4804090
:1018600040F400402168CA694CF6FF739A43104364
:10187000C861D4E9071001432068026822F0C00261
:1018800011430160D4E9030101432068826848F2F2
:10189000FF339A4311438160D4E90501084321686D
:1018A000CA6822F0FF021043C86001E00EE016E0B3
:1018B0002068016841F0010101602564202084F85E
:1018C0003D00256384F83E50002070BD01EB4106C9
:1018D000431EB3FBF6F35B1CB3E70120C2E701EB49
:1018E0004101401EB0FBF1F0401CC0F30B00B7E714
:1018F000A086010080841E0000093D0040420F00C8
:101900002DE9FF4F83B09A46DDE9119793460446CF
:10191000DDF84080FFF72AFF054694F83D002028B7
:101920007FD11923012240492046009501F030FB68
:10193000002876D194F83C00012872D0012084F868
:101940003C0020680168C90703D1016841F001012A
:1019500001602068016821F400610160212084F8A1
:101960003D00402084F83E0000262664C4F8248010
:10197000A4F82A90608D20852C48E062CDE900759E
:1019800053465A462046049901F082FA70B930E075
:101990002A463946204601F0A1FB58B1206C0428A4
:1019A00004D12068016841F400710160012007B092
:1019B000BDE8F08F606A216800780861606A401CA9
:1019C0006062218D491E89B22185628D521E628519
:1019D00022685369DB435B070BD469B1007810615F
:1019E000606A401C6062208D401E2085608D401E14
:1019F0006085208D0028CBD12A463946204601F04B
:101A00009BFA0028CAD154F83D0B016841F40071DB
:101A10000160202004F81E09E67766770020C6E7FB
:101A2000FFE70220C3E70000020010000000FFFFF4
:101A300010B586B0002100910191029103910068D8
:101A40000F4988421AD10F4CA06940F00800A061EC
:101A5000A069694600F008000490C02000901220A0
:101A60000190032003900848FFF776FDE06940F4F9
:101A70000010E061E06900F40010049006B010BDB1
:101A80000054004000100240000C014002488168F0
:101A9000027811448160704738000020074810B573
:101AA000016841F010010160032000F075F80A2080
:101AB00000F006F800F024F8002010BD00200240DD
:101AC00070B50D4D04464FF47A712878B1FBF0F0F3
:101AD0000A490968B1FBF0F000F0AEFB48B9102CE0
:101AE00007D200222146501E00F036F800206C601C
:101AF00070BD012070BD00003800002044000020AF
:101B00000C4808B5816941F001018161816901F0EA
:101B100001010091C16941F08051C161C06900F0CB
:101B2000805000900448416821F0E06141F000716C
:101B3000416008BD0010024000000140002809DBA0
:101B400000F01F02012191404009800000F1E020D7
:101B5000C0F8001170470000F0B40E4B1B680C4633
:101B6000C3F30223C3F10705042D00D90425191D71
:101B7000072901D2002300E0DB1E012606FA05F149
:101B8000491E214099409E40761E16403143F0BCCC
:101B900001F0F6BF0CED00E0064900F0070208680E
:101BA0004FF6FF03184040EA0220034A1043086042
:101BB000704700000CED00E00000FA0510B501468A
:101BC0000020284C04292FD00BDC012930D0022919
:101BD00029D100F06BF96168C1F38131491C4900DA
:101BE0001FE0082920D010291DD161682268D20188
:101BF00019D51D48C1F38342C903805C0AD56168C9
:101C0000194AC1F34041921E515C184AB2FBF1F1EE
:101C1000484301E0164948436168490203D4400043
:101C20000321B0FBF1F010BDBDE8104000F04EB94B
:101C3000226AC2F30121012903D1920701D5C80309
:101C400010BD022905D1626A920702D549F64040CB
:101C500010BD0329FCD121688903F9D54FF2244036
:101C600010BD000000100240085A000800127A005F
:101C700000093D002DE9F84305460078354CC007C2
:101C800054D0E0690026C00008D4E06940F08050DC
:101C9000E061E069012600F0805000902E48016864
:101CA000C90512D40168804641F480710160FFF7D4
:101CB0005DFD074605E000BFFFF758FDC01B642827
:101CC00023D8D8F80000C005F6D5206A10F440707B
:101CD00021D0A98801F4407181421CD0206A1F499B
:101CE000012220F440700A6000220A602062C007CE
:101CF00011D0FFF73BFD074641F2883808E000BFEE
:101D0000FFF734FDC11B414502D90320BDE8F8832C
:101D1000206A8007F4D5206A696820F4407008437F
:101D200020621EB1E06920F08050E06128788007D1
:101D300005D56068A96820F44040084360602878B1
:101D4000C00605D56068696920F4800008436060BA
:101D50000020DBE7001002400070004040044242D7
:101D60002DE9F0470F46050061D0434E306800F082
:101D70000700B84209D2306820F0070038433060CD
:101D8000306800F00700B84251D128683B4C810709
:101D900012D5400703D5606840F4E06060602878A1
:101DA000000703D5606840F4605060606068A9680F
:101DB00020F0F000084360602878C00728D06868E9
:101DC000012810D02168022810D0890700292EDAB6
:101DD000616821F0030101436160FFF7C7FC8046A1
:101DE00041F288390DE021688903EFE78901EDE7C9
:101DF000FFF7BCFCA0EB0801494502D90320BDE870
:101E0000F0876068696800F00C00B0EB810FEFD1DB
:101E1000306800F00700B8420BD9306820F00700A6
:101E200038433060306800F00700B84201D001202C
:101E3000E5E72878400705D56068E96820F4E060A8
:101E4000084360602878000706D56068296920F497
:101E5000605040EAC100606000F038F86168084AEC
:101E6000C1F30311515CC840064908600648006888
:101E7000FFF726FE0020C2E70020024000100240CB
:101E8000185A0008440000203C000020044805497E
:101E900000684968044AC1F30221515CC840704798
:101EA0004400002000100240285A00080448054958
:101EB00000684968044AC1F3C221515CC8407047B8
:101EC0004400002000100240285A00080E4A5168C1
:101ED0000E4801F00C03042B11D0082B0FD10C4835
:101EE000C1F38343C903C05C0AD55168084AC1F3F2
:101EF0004041921E515C054A5043B0FBF1F07047DF
:101F000004494843704700000010024000127A0064
:101F1000F659000800093D002DE9F84F040070D083
:101F20002078C04DC00749D06868C0F381000128FF
:101F300007D06868C0F38100022809D16868C0032F
:101F400006D52868800339D560680028E7D035E0D9
:101F50006068B0F5803F0BD010B1B0F5A02F11D064
:101F6000286820F480302860286820F4802002E06F
:101F7000286840F480302860606890B1FFF7F6FB75
:101F800006460AE0286840F480202860F0E700BF99
:101F9000FFF7ECFB801B642873D828688003F7D513
:101FA0000CE0FFF7E3FB064605E000BFFFF7DEFBB2
:101FB000801B6428F0D828688003F7D420789A4ED4
:101FC00080074FF001094FF0000839D5686810F01C
:101FD0000C0F07D06868C0F38100022809D1686837
:101FE000C00306D42868800714D52069012808D1C9
:101FF00010E02069B0B1C6F80090FFF7B7FB0746C4
:1020000005E00AE1FFF7B2FBC01B0228C4D828682C
:102010008007F7D52868616920F0F80040EAC10020
:1020200028600DE0C6F80080FFF7A0FB074604E03B
:10203000FFF79CFBC01B022823D828688007F7D431
:10204000207800072CD57948A169D9B1C0F8009053
:10205000FFF78CFB074604E0FFF788FBC01B022854
:102060000FD8686A8007F7D571484FF4FA510068B5
:10207000B0FBF1F0009000BF0098411E0091FAD231
:102080000EE080E0C0F80080FFF770FB074604E038
:10209000FFF76CFBC01B022875D8686A8007F7D46D
:1020A0002078400760D5E8690027C00008D4E869B7
:1020B00040F08050E861E869012700F0805000900E
:1020C0005C480168C90513D40168834641F48071F6
:1020D0000160FFF74BFB824606E000BFFFF746FBBF
:1020E000A0EB0A0064284ED8DBF80000C005F5D547
:1020F000E06801280AD008B1052813D0286A20F02A
:1021000001002862286A20F0040002E0286A40F0FA
:1021100001002862E06841F2883B98B1FFF726FB96
:1021200082460BE0286A40F004002862EEE700BF18
:10213000FFF71CFBA0EB0A0159455AD8286A800713
:10214000F6D50CE0FFF712FB824605E0FFF70EFB29
:10215000A0EB0A0159454CD8286A8007F6D41FB174
:10216000E86920F08050E861E06988B36968C1F3EC
:102170008101022944D00228C6F8608004D0FFF70C
:10218000F5FA044638E034E0FFF7F0FA074604E0D9
:10219000FFF7ECFAC01B02282BD828688001F7D47F
:1021A000206AB0F5803F05D16868A16820F400304E
:1021B00008436860D4E908010843696821F4741190
:1021C00008436860C6F86090FFF7D0FA044606E05E
:1021D00025E000BFFFF7CAFA001B022809D82868CB
:1021E0008001F7D51BE000BFFFF7C0FA001B0228F3
:1021F00002D90320BDE8F88F28688001F4D40EE0EE
:102200000128F7D06868226A00F48031914204D135
:10221000616A00F47010884201D00120EAE70020D2
:10222000E8E7000000100240000042428004424201
:10223000440000200070004010B5401EB0F1807FC7
:1022400001D3012010BD4FF0E02460610F21601721
:1022500001F096FC0020A06107202061002010BD45
:102260007047704770B590F83C20012A2CD00124AB
:1022700080F83C40022280F83D2003685A689D683F
:1022800022F070060A6832435A60104B02689A4284
:102290000ED00F4B9A420BD0B2F1804F08D00D4BAD
:1022A0009A4205D00C4B9A4202D00C4B9A4204D170
:1022B000496825F080031943916080F83D40002172
:1022C00080F83C10084670BD022070BD002C014013
:1022D000003401400004004000080040000C0040B1
:1022E00010B5040003D094F83D0010B107E00120C0
:1022F00010BD002084F83C00204600F01FF80220AA
:1023000084F83D00211D206801F078F9012084F84F
:10231000460084F83E0084F83F0084F8400084F8CA
:10232000410084F8420084F8430084F8440084F8B3
:10233000450084F83D00002010BD000008B5204A8B
:102340000168204891420ED1816941F400618161A8
:102350008069002200F40060009011461920FFF708
:10236000FBFB19201BE0184A914207D1C16941F0DB
:102370000401C161C06900F004001EE0134A9142EB
:1023800011D1C16941F01001C161C069002200F0A2
:102390001000009011463620FFF7DEFB3620BDE826
:1023A0000840FFF7CBBB0A4A914207D1C16941F00F
:1023B0002001C161C06900F02000009008BD00004C
:1023C000002C0140001002400008004000100040B6
:1023D0000014004090F83D10012901D00120704701
:1023E000022180F83D100168CA6842F00102CA600B
:1023F00000680E4988420ED00D4988420BD0B0F1DA
:10240000804F08D00B49884205D00B49884202D042
:102410000A49884204D1816801F00701062903D0E6
:10242000016841F00101016000207047002C01406B
:10243000003401400004004000080040000C00404F
:1024400070B5044690F83C000025012817D00126FD
:1024500084F83C60022084F83D002068826822F005
:10246000770222F47F4282600868502838D00DDC61
:1024700020284FD005DC90B3102811D14AE002206B
:1024800070BD302846D040280AD13BE060282FD0CC
:1024900070280DD0B0F5805F03D0B0F5005F12D08A
:1024A000012584F83D60002084F83C00284670BD7A
:1024B000CB68D1E90121206801F0F3F82068816838
:1024C00041F0770109E0CB68D1E90121206801F0F2
:1024D000E8F82068816841F480418160E1E719E013
:1024E000CA684968206801F0B1F95021206806E007
:1024F000CA684968206801F0BAF96021206801F0D3
:10250000DAF8CEE7CA684968206801F09FF94021EF
:102510002068F4E7226801461046F0E7704770B57E
:102520000446006801694FF00005C943890715D4C6
:10253000C168C943890711D4E91E016101202077D0
:10254000206880698007204602D0FFF7E7FF04E09B
:1025500000F0E6F8204600F08BF925772068016945
:10256000C943490717D4C168C943490713D46FF059
:1025700004010161022020772068806910F4407F07
:10258000204602D0FFF7CAFF04E000F0C9F8204659
:1025900000F06EF9257720680169C943090716D450
:1025A000C168C943090712D46FF008010161042012
:1025B00020772068C0698007204602D0FFF7AEFF71
:1025C00004E000F0ADF8204600F052F925772068CD
:1025D0000169C943C90617D4C168C943C90613D4E0
:1025E0006FF010010161082020772068C06910F4A5
:1025F000407F204602D0FFF791FF04E000F090F802
:10260000204600F035F9257720680169C943C907DC
:1026100008D1C168C943C90704D1891E0161204698
:1026200000F082F920680169C943090609D4C1682C
:10263000C943090605D46FF0800101612046FFF708
:102640000FFE20680169C943490609D4C168C9431E
:10265000490605D46FF040010161204600F092F96F
:1026600020680169C94389060BD4C168C94389063A
:1026700007D46FF0200101612046BDE87040FFF7EC
:10268000F0BD70BD10B586B000210091019102919E
:1026900003911D4B02681D4802211D4C9A4217D11F
:1026A000826942F0080282618069039100F00800AB
:1026B00004902020CDE9000169461648FEF74CFF42
:1026C000606820F4406040F0E06040F4006017E093
:1026D000114B9A4215D1826942F0200282618069D1
:1026E000039100F0200004905814CDE900016946E0
:1026F0000A48FEF731FF606840F0E06040F4805027
:10270000606006B010BD00000004004000100240F0
:1027100000000140000C014000080040001401408E
:10272000704770B5044690F83C0000260D4601281D
:102730000FD0012084F83C006AB1042A1DD0082A79
:102740002FD00C2A3FD00126002084F83C003046D0
:1027500070BD022070BD206800F0B6FF206881695E
:1027600041F0080181612068816921F004018161E3
:10277000206881692A69114311E0206800F0D4FFC4
:102780002068816941F4006181612068816921F4D8
:1027900080618161206881692A6941EA0221816141
:1027A000D2E7206800F0F6FF2068C16941F0080117
:1027B000C1612068C16921F00401C1612068C1695B
:1027C0002A69114311E0206801F018F82068C169F6
:1027D00041F40061C1612068C16921F48061C16177
:1027E0002068C1692A6941EA0221C161ACE710B5DC
:1027F000040003D094F83D0010B107E0012010BDA3
:10280000002084F83C00204600F01EF8022084F8E6
:102810003D00211D206800F0F1FE012084F84600F3
:1028200084F83E0084F83F0084F8400084F84100BA
:1028300084F8420084F8430084F8440084F845009A
:1028400084F83D00002010BD08B5006806498842A4
:1028500008D10648C16941F00201C161C06900F0B8
:102860000200009008BD000000040040001002407B
:102870007047000010B50446022249B104290ED069
:10288000082913D094F84100012816D0012010BD6A
:1028900094F83E000128F9D184F83E200FE094F826
:1028A0003F000128F2D184F83F2008E094F840006E
:1028B0000128EBD184F8402001E084F84120012276
:1028C000206800F0E1FE13492068134A884201D0D5
:1028D000904203D1436C43F4004343642068884230
:1028E0000DD090420BD0B0F1804F08D00B498842F8
:1028F00005D00B49884202D00A49884204D1816838
:1029000001F00701062903D0016841F001010160CF
:10291000002010BD002C01400034014000040040A4
:1029200000080040000C004030B51349884222D115
:102930001248002301464568C969114C42F21072E1
:10294000012D0AD105680D440560954201DA2A4639
:1029500001E0C0E900232568AA634268002A0AD181
:102960000268511A0160002902DC0121C0E900312E
:1029700021680068886330BD680C002010000020CA
:10298000D80B00207047704770470000F8B5016809
:1029900004460868CA684B6910F00F0F4FF0000535
:1029A00059D003F0010602F49077374365D0C10790
:1029B00005D0D10503D5616C41F001016164410787
:1029C00005D5D90703D0616C41F00201616481072C
:1029D00005D5D90703D0616C41F00401616401079A
:1029E00007D502F02001314303D0616C41F00801AA
:1029F0006164616C00293AD0800604D5900602D546
:102A0000204600F075FF20684069616CC0F38010BB
:102A1000090700D460B3204600F043FF20684069F6
:102A2000400621D52068143050E8001F21F04001F5
:102A300040E80012002AF5D1E06BA8B16D4941636E
:102A4000E06BFEF737FB002811D0E06B416B01B063
:102A5000BDE8F040084783060FD593060DD5204604
:102A6000BDE8F84000F044BF2046FFF78DFFF8BDF9
:102A70002046FFF789FF6564F8BD266B2023012EF1
:102A80007CD1C6067AD5D60678D508684868009005
:102A900048694FF00206400640D5E16B086840687F
:102AA0000004000CE8D0A28D8242E5D9E085886957
:102AB00020282DD020680C3050E8001F21F48071B0
:102AC00040E80012002AF5D12068143050E8001FB9
:102AD00021F0010140E80012002AF5D120681430ED
:102AE00050E8001F21F0400140E80012002AF5D113
:102AF00084F84230256320680C3050E8001F21F034
:102B0000100140E80012002AF5D1E06BFEF7AEFAA2
:102B10006663A08DE18D401A81B22AE0A08DE18D1F
:102B2000401A81B2E08D0028A6D00029A4D02268E6
:102B30000C3252E8000F20F4907042E80007002F9A
:102B4000F5D12068143050E8002F22F0010240E84F
:102B50000027002FF5D184F84230256320680C301F
:102B600050E8002F22F0100240E80023002BF5D19E
:102B700066632046FFF707FFF8BDFFE705062BD584
:102B8000150629D594F841002128F5D1A068B0F5A3
:102B9000805F01D12069B0B1206A411C21622168A7
:102BA00000784860E08C401E0004000CE084E3D113
:102BB0002068C16821F08001C1602068C16841F0CF
:102BC0004001C160D8E7206A0088C0F3080048606F
:102BD000206A801C2062E5E74006CDD55006CBD5A3
:102BE000CA68204622F04002CA6084F8413000F0F2
:102BF00036F9C1E79338000870B5040004D094F8A2
:102C00004100002510B106E0012070BD84F840505D
:102C1000204600F023F8242084F841002068C16891
:102C200021F40051C160204600F0C4FE2068016913
:102C300021F4904101612068416921F02A0141613C
:102C40002068C16841F40051C1606564202084F8A7
:102C5000410084F842006563002070BD70B586B005
:102C60000024009401940294039403682E482D4E8E
:102C7000022103220515B34226D1836943F4804320
:102C80008361836903F480430493836943F00403FD
:102C900083618069254E00F0040004900802CDE9AC
:102CA0000001039269463046FEF756FCCDE9005418
:102CB000694630460294FEF74FFC0022114625205B
:102CC000FEF74AFF252028E0194EB34227D1C369F9
:102CD00043F48023C361C36903F4802304938369AD
:102CE00043F0080383618069CDE9005100F00800DA
:102CF000CDE903200F4D69462846FEF72DFCE81468
:102D0000CDE90004694628460294FEF725FC00221E
:102D100011462720FEF720FF2720FEF70FFF06B001
:102D200070BD000000380140001002400008014062
:102D300000480040000C014090F84230202B01D0A8
:102D40000220704721B11AB10023036300F08EBE48
:102D5000012070472DE9F041054615480026154C25
:102D60004FF4437885420ED16069401C6061404554
:102D700000DB6661104F6069012239180C48FFF7CB
:102D8000DBFF0028F7D10D4885420ED1A068401C1A
:102D9000A060404500DBA660094DA068012229180B
:102DA0000648FFF7C9FF0028F7D1BDE8F081000011
:102DB000F80C0020100000206C070020400D0020BF
:102DC0004C0400202DE9F843044690F841001F46CA
:102DD00016460D46202802D00220BDE8F8837DB1BA
:102DE00076B100206064212084F84100FEF7BEFC2B
:102DF000A6848046E684A068B0F5805F02D003E038
:102E00000120EAE7206910B12E4600250EE00026D9
:102E10000CE08021204600F044FEA0B9AEB116F8C7
:102E2000010B21684860E08C401EE084E08C434642
:102E30004FF0000200970028EBD14FF040012046F0
:102E400000F02FFE30B10320C7E735F8020BC0F3C6
:102E50000800E6E7202084F841000020BDE7704725
:102E6000FEE701684A69D24352050FD46FF48062CD
:102E70004A61002140F8301F2022427381730269A9
:102E800042F0040202610173012070470020704784
:102E90002DE9F843044600680D46DDE9089701680E
:102EA0009846164641F4807101604B4600224FF06F
:102EB00001112046009700F06BF848B120680068C7
:102EC000C00502D54FF4007020640320BDE8F883EC
:102ED000216805F0FE0008613B464A461549204638
:102EE00000F09EF888B920684169806900903A46F0
:102EF0004946204600F0F2F848B1206C042804D17D
:102F00002068016841F4007101600120DEE7F5B23C
:102F1000B8F1010F09D02168300A08613A464946E4
:102F2000204600F0DBF80028E7D12068056100208A
:102F3000CCE700000200010070B516460D460446BD
:102F40001EE02046FFF78DFF08B1012070BD681C10
:102F500016D0FEF70BFC801BA84200D885B920686C
:102F60004069C04340070BD5002044F8300F2021B2
:102F70006173A073216941F0200121612073E4E7AE
:102F800020684069C0434007DBD4002070BD0000CA
:102F90002DE9F047984617460D460446C1F307460B
:102FA000DDF820902AE000BFB8F1FF3F26D0FEF701
:102FB000DDFBA0EB0901414502D8B8F1000F1DD19E
:102FC0002068012E16D0806925EA00000004000C5C
:102FD00012D00020B84211D1002044F8300F202137
:102FE0006173A073216941F02001216120730120E8
:102FF000BDE8F0874069E7E70120EBE72068012E94
:103000000AD0806925EA00000004000C06D00020E8
:10301000B842C9D00020EBE74069F3E70120F7E7A9
:103020002DE9F047984616460D4604464FF0000934
:103030004FF0200AC1F3074723E020684069C043EE
:10304000400515D42068016841F4007101602168D1
:103050006FF480604861C4F8309084F83DA084F833
:103060003E90216C41F00401216484F83C9021E001
:10307000701C06D0FEF77AFBA0EB0800B04203D824
:1030800016B1012F1FD021E02068012F15D08069D3
:1030900025EA00000004000C18D000BF44F8309F5F
:1030A00084F80DA084F80E90216941F0200121617F
:1030B00084F80C900120BDE8F087406925EA000003
:1030C0000004000CEAD12068406901E020688069B2
:1030D00025EA00000004000CAFD1ECE770B51646FD
:1030E0000D4604461EE02046FFF7BBFE08B1012056
:1030F00070BD681C16D0FEF739FB801BA84200D8B3
:1031000085B920684069C04300060BD5002044F80B
:10311000300F20216173A073216941F020012161EA
:103120002073E4E720684069C0430006DBD4002038
:1031300070BD00003EB500211C48009101911A4A63
:1031400002910260921582600124047301750325C7
:103150004FF460220561C2614160FDF7C5FD08B111
:10316000FDF7C2FC0720CDE90004029069460F4834
:10317000FDF728FD08B1FDF7B7FC102000900220F4
:10318000019069460948FDF71DFD08B1FDF7ACFC4B
:103190001120CDE9000569460448FDF713FD00281C
:1031A00001D0FDF7A1FC3EBD00240140C80A00206B
:1031B000094808B5416941F00101416140690022B7
:1031C00000F00100009011460B20FEF7C5FCBDE8A1
:1031D00008400B20FEF7B2BC0010024070B586B06C
:1031E00000242C480094019402940394816941F0D6
:1031F00040018161816901F040010491816941F0E0
:1032000010018161816901F010010491816941F02F
:1032100004018161816901F004010491816941F037
:1032200008018161816901F008010491816941F01F
:10323000200181618069184E00F020000490002276
:1032400020213046FEF78CFA182000901348012503
:10325000CDE9010569463046FEF77EF92020CDE92B
:1032600000050220CDE9024069463046FEF774F9B8
:1032700000220F210920FEF76FFC0920FEF75EFCFB
:1032800000220F210A20FEF767FC0A20FEF756FCF9
:1032900006B070BD0010024000180140000021106F
:1032A0000D4810B50B4901600C49416000214FF4F5
:1032B00080428160C0E9031241618161C1610162A4
:1032C000FEF75AFA002803D0BDE81040FDF70CBC09
:1032D00010BD0000005400403C0B0020A0860100FF
:1032E00010B586B000241848009401940294039409
:1032F000049414490594016040F6C311C0E9011417
:1033000040F20771C0E903148021C0E90541FEF7CE
:10331000E7FF08B1FDF7E8FB4FF4805000906946E5
:103320000948FFF78DF808B1FDF7DEFB049404A906
:1033300005480594FEF796FF002801D0FDF7D4FB61
:1033400006B010BD002C0140900B002010B58AB0D3
:10335000002407941C2168460894FCF730FF1848A5
:10336000164901608F21C0E9011442F20F71C0E9D2
:10337000031480218161FFF73AFA08B1FDF7B4FB2D
:10338000079407A90E480894FEF76CFF08B1FDF7F3
:10339000ABFB6020009041F28830CDE901040422AB
:1033A000694607480494FFF7BCF908B1FDF79CFB98
:1033B0000348FFF767F90AB010BD000000040040A1
:1033C000D80B002010B58EB00024079408940994FF
:1033D0000A940B941C2168460C94FCF7F0FE1F48DD
:1033E0001D4901600521C0E901144FF6FE71C0E9D5
:1033F000031480218161FEF773FF08B1FDF774FBB0
:103400004FF48050079007A91448FFF719F808B146
:10341000FDF76AFB1148FFF7EAF908B1FDF764FB15
:103420000B940BA90D480C94FEF71CFF08B1FDF797
:103430005BFB6020CDE90004029404226946074842
:103440000494FFF76EF908B1FDF74EFB0348FFF750
:1034500019F90EB010BD000000080040200C00203B
:103460001CB500240E4800940C490194016005210C
:10347000C0E901144FF6FE718461C160FEF730FFB0
:1034800008B1FDF731FB0094694605480194FEF749
:10349000E9FE002801D0FDF727FB1CBD001000400D
:1034A000680C00201CB500240F4800940D490194BD
:1034B00001604FF43461C0E901144FF47A71846102
:1034C000C160FEF70DFF08B1FDF70EFB00946946E1
:1034D00005480194FEF7C6FE002801D0FDF704FB65
:1034E0001CBD000000140040B00C00200C4810B5BA
:1034F0000A4901604FF4E1314160002181600C22F2
:10350000C160C0E904128161C161FFF775FB002849
:1035100003D0BDE81040FDF7E7BA10BD0038014008
:10352000F80C00200C4810B50A4901604FF4E13155
:103530004160002181600C22C160C0E904128161F8
:10354000C161FFF759FB002803D0BDE81040FDF72B
:10355000CBBA10BD00480040400D0020FEE7FEE75A
:1035600070477047FEF792BA30B595B0282168468B
:10357000FCF725FE14210AA8FCF721FE18210FA84C
:10358000FCF71DFE01210804CDE90010002502957D
:1035900002240491CDE907404FF4E01009906846F9
:1035A000FEF7BAFC08B172B6FEE70AA90F2081E85F
:1035B00031004FF48060CDE90D0502210AA8FEF725
:1035C000CFFB08B172B6FEE74FF4404011900F9464
:1035D0000FA8FEF74FFB002801D072B6FEE715B02A
:1035E00030BD70470148FEF79ABF0000900B0020E5
:1035F0000148FEF794BF0000680C0020F0B5026897
:103600001C4B1D4D1D4E1E4F1E4C4FF0804C9842C2
:1036100009D0A04207D0604505D0A84203D0B042EF
:1036200001D0B84204D122F0700E4A6842EA0E027C
:10363000984209D0A04207D0604505D0A84203D0E7
:10364000B04201D0B84203D122F44075CA682A437F
:103650004D6922F080022A4302608A68C2620A68C9
:103660008262984201D0A04201D10969016301211F
:103670004161F0BD002C0140000400400008004002
:10368000000C00400034014010B501F01F0301217F
:10369000046A99408C430462016A9A4011430162B2
:1036A00010BD10B5846842EA032224F47F440A4323
:1036B0002243826010BD826822F070020A4342F009
:1036C0000701816070470000F0B5036A026A22F0CA
:1036D0000102026242688469124E24F073050C688C
:1036E0002C4323F002058B682B430D4DA84201D0DB
:1036F000B04205D123F00807CB683B4323F0040315
:10370000A84201D0B04205D14D6922F44072154360
:103710008A692A4342608461496841630362F0BD5B
:10372000002C014000340140F0B5026A036A23F026
:1037300010030362436884690D6824F4E64444EA94
:1037400005248D6822F0200242EA05120F4D104E2A
:10375000A84201D0B04206D1CF6822F0800242EAEE
:10376000071222F04002A84201D0B04207D14D69B1
:1037700023F4406343EA85038D6943EA850343608C
:103780008461496881630262F0BD0000002C014041
:1037900000340140F0B5026A036A23F480730362C7
:1037A0004368C46922F4007224F073050C68124E59
:1037B0002C438D6842EA05220E4DA84201D0B0424A
:1037C00006D1CF6822F4006242EA072222F4806226
:1037D000A84201D0B04207D14D6923F4405343EAD7
:1037E00005138D6943EA05134360C4614968C163E9
:1037F0000262F0BD002C01400034014030B5046A83
:10380000026A22F4805202624268C3690D6823F49E
:10381000E64343EA05238D6824F4005444EA053462
:10382000084DA84202D0084DA84204D14D6922F4A7
:10383000804242EA85124260C361496801640462C1
:1038400030BD0000002C01400034014010B5036A77
:10385000046A24F001040462846924F0F00444EA58
:10386000021423F00A020A438461026210BD10B5FB
:10387000036A046A24F010040462846923F0A0033C
:1038800024F4704444EA023243EA01118261016285
:1038900010BD10B5406A0021C185C184FFF774F8DE
:1038A00010BD01680C3151E8002F22F4907241E8FC
:1038B0000023002BF5D10168143151E8002F22F0CC
:1038C000010241E80023002BF5D1016B012909D148
:1038D00001680C3151E8002F22F0100241E800236A
:1038E000002BF5D1202180F84210002101637047A0
:1038F00008B590F84210222901D0022008BD826844
:103900004FF480539A4201D1016921B1816A9A42F0
:103910001BD04AB10AE00268816A5268C2F3080209
:103920000A80816A891C08E0026972B102685268E3
:1039300002F07F020A70816A491C8162C18D491EB2
:103940000904090CC18503D01BE002685268F1E745
:103950000168CA6822F02002CA600168CA6822F4BD
:103960008072CA6001684A6922F001024A6120211E
:1039700080F8421000214163026B012A03D0FFF757
:10398000E9F9002008BD016301680C3151E8002FFE
:1039900022F0100241E80023002BF5D101680A68EB
:1039A000D20602D50A6849680091818DFEF7EBFFC7
:1039B000E7E7000070B5044600680169E26821F499
:1039C0004051114301612169A068084361690843BE
:1039D0002168CA6841F20C639A430243CA602068B6
:1039E0004169A26921F44071114341611E49206877
:1039F000884202D1FEF75AFA01E0FEF747FA00EBDF
:103A0000C00101EB0012606864218000B2FBF0F39A
:103A1000B3FBF1F36FF018067343B2FBF0F5B2FBA2
:103A2000F0F605EB8305322303EB0515B5FBF1F545
:103A3000B6FBF1F605F0F00505EB0615B2FBF0F666
:103A4000B2FBF0F0B0FBF1F06FF01802504306EB60
:103A5000800003EB0010B0FBF1F0216800F00F00D4
:103A60002844886070BD0000003801408162828572
:103A7000C28500214164222180F84210016921B1F0
:103A80000168CA6842F48072CA6001684A6942F0FB
:103A900001024A610068C16841F02001C160002054
:103AA00070472DE9F041984617460E460446069D9C
:103AB00027E0681C25D02DB1FDF758FEA0EB0800CB
:103AC000A8421ED920680C3050E8001F21F4D071A4
:103AD00040E80012002AF5D12068143050E8001F99
:103AE00021F0010140E80012002AF5D1202084F8DD
:103AF000410084F84200002084F840000320BDE823
:103B0000F0812068006836EA000004D00020B84246
:103B1000CFD00020F3E70120F9E700000148FEF7CD
:103B200035BF0000F80C00200148FEF72FBF000051
:103B3000400D0020FEE700000FB4054B10B503A9AF
:103B4000044A029800F0FEF810BC5DF814FB000077
:103B500089450008480000200FB4084B10B504A99F
:103B600002AA039800F0EEF8044602A9002000F033
:103B70006CFC204610BC5DF814FB00004B440008B0
:103B80000907090E002804DB00F1E02080F800148A
:103B9000704700F00F0000F1E02080F8141D70471E
:103BA00002E008C8121F08C1002AFAD17047704706
:103BB000002001E001C1121F002AFBD17047000064
:103BC0002DE9FF5F82B00021DDE90430020DDDF850
:103BD00040B0034318D044F61050A2F2FF324243E3
:103BE0001514119801281FD0A5EB0B00401C5FEAAB
:103BF000000A4FF000064E4FDFF83891B0465046AD
:103C000015D5CAF1000413E0119801244AA3012834
:103C100001D16FEA0B010298119AC0E90031C0E9A5
:103C2000024206B0BDE8F09FCBF10000DFE704469A
:103C30000021404A491842EB0450CDE9001012E03F
:103C4000E00707D032463B4640464946FCF7FAFBC0
:103C50008046894632463B4610461946FCF7F2FB41
:103C600006460F466410002CEAD1DDE90401DDE9C7
:103C70000023BAF1000F06DAFCF7E4FB42464B469C
:103C8000FCF7E0FB05E0FCF74FFC42464B46FCF737
:103C90004BFC04460E460022284BFCF721FE03D8BD
:103CA0004FF0FF30014607E00022254B2046314609
:103CB000FCF721FBFCF7FCFD102409E0002C0ADBDB
:103CC0000A220023FCF70EFD039B30321A55641EB6
:103CD00050EA0102F2D1641C039AC4F111031444A6
:103CE000119A012A03D0012208430DD10AE00843AA
:103CF00004D000204FF0110B119072E7A3EB0B05DD
:103D00006D1E0DE05B4504DD4FF0000205F101057D
:103D100004E003DA4FF00002A5F10105002AECD01F
:103D200002981199C0E90231C0E9004579E7000025
:103D3000000014400000F03F300000000000F0439D
:103D40000000E03F2DE9FF4F95B09A4688460646B1
:103D50000025EEE1252877D100242746F94A0121E4
:103D6000039400E0044316F8013F203B01FA03F0FE
:103D70001042F7D130782A2811D06FF02F03307815
:103D8000A0F13002092A16D8039A44F0020402EB8B
:103D9000820203EB42021044761C0390EFE758F8CE
:103DA000042B0392002A03DA504244F40054039097
:103DB00044F00204761C30782E2816D116F8010F34
:103DC00044F004042A280DD06FF02F023078A0F1BF
:103DD0003003092B09D807EB870302EB4303C7180D
:103DE000761CF3E758F8047B761C30786C280FD0EB
:103DF00006DC4C2817D068280DD06A2814D104E0BE
:103E0000742810D07A280FD10DE044F400140AE091
:103E100044F4801401E044F440147278824202D1E8
:103E200004F58014761C761C307866280BD013DCE1
:103E3000582877D009DC002875D04528F6D04628C8
:103E4000F4D047281AD193E118E0632835D06428CC
:103E500079D0652812D18BE1702873D008DC6728EF
:103E6000F1D069286FD06E280DD06F2806D1ACE054
:103E700073282CD0752874D0782853D052461799BF
:103E800090476D1C54E1C4F30250022809D0032866
:103E90000DD0D8F8001004280DD00D6008F10408EA
:103EA00046E1D8F80010EA17C1E90052F6E7D8F861
:103EB00000100D80F2E70D70F0E718F8041B8DF884
:103EC000001000208DF80100EB46012003E058F8B7
:103ED00004BB4FF0FF3061074FF0000102D40DE04A
:103EE00009F101018946B9420FDA8145F8DB1BF877
:103EF00009100029F4D108E009F101018946814245
:103F0000FADB1BF809100029F6D103985346A0EB01
:103F1000090721463846179A00F080FA284400EB3A
:103F2000090507E044E008E10DE01BF8010B5246EB
:103F300017999047B9F10109F7D2534621463846FF
:103F4000179AF2E039E00A21C4F302524FF0000B55
:103F50000091022A06D058F8040BC117032A09D091
:103F60000AE023E008F1070020F00702F2E802016E
:103F7000904605E000B2C117042A01D140B2C11732
:103F8000002906DA0A460021404261EB02012D2297
:103F900002E0220504D52B228DF80420012203E043
:103FA000E20701D02022F7E7914657E00A2100E01E
:103FB00010214FF0000B00910BE010214FF0000B8F
:103FC00044F004040827009103E008204FF0000BA0
:103FD0000090C4F30252022A05D058F8040B0021C5
:103FE000032A08D008E008F1070020F00702F2E8F1
:103FF0000201904603E080B2042A00D1C0B24FF023
:10400000000922072AD53278702A07D0DDF800C0CF
:104010008CF0100C5CEA0B0C05D00EE040228DF801
:104020000420012208E050EA010306D030238DF875
:1040300004308DF8052002229146009B83F008038E
:1040400053EA0B030AD150EA010201D1620705D5F8
:1040500030228DF804204FF001097F1E3278582A53
:1040600004D039A20C920CAA02920BE03BA2F9E711
:104070005B46009AFCF736FB0C9B9B5C029A521E37
:104080000292137050EA0102F2D1029804A9081AB0
:1040900000F1200B600702D524F4803400E00127F2
:1040A0005F4502DDA7EB0B0000E0002000EB0B01F9
:1040B000009003984944401A0390E00306D4534605
:1040C0002146179A039800F0A9F90544002706E055
:1040D00001A85246C05D179990476D1C7F1C4F4543
:1040E000F6DBE0030CD553462146179A039800F0FF
:1040F00095F9054404E030205246179990476D1C0D
:104100000099481E00900029F5DC08E00298029909
:1041100052460078491C0291179990476D1CBBF1DB
:104120000001ABF1010BF1DC5BE100F065F9054446
:10413000761C307800287FF40DAE19B02846BDE813
:10414000F08F000009280100303132333435363722
:1041500038396162636465660000000030313233D3
:104160003435363738394142434445460000000073
:10417000600700D4062708F1070020F00700F0E8E8
:104180000223804603F0004C5FEA0C0001D097A0A8
:1041900009E0200501D596A005E0E00701D095A033
:1041A00001E0AFF24C001390307823F00043652813
:1041B0000CD006DC452809D046281DD047287FD1E1
:1041C0003BE0662818D067287AD136E00021112F0D
:1041D00001DB112000E0781CCDE9000104A90CA846
:1041E000FFF7EEFCDDE90D010C9A4FF0000B07F133
:1041F0000109109200914EE04FF000400097CDE988
:10420000011004A90CA8FFF7DBFCDDE90D020C9BF3
:104210000F994FF0000B91461093009211B9791C41
:1042200000EB0109B7EB090003D4C0F1FF3B07F134
:104230000109A9EB0700019042E0012F00DA0127F4
:104240000021112F01DD112000E03846CDE90001E9
:1042500004A90CA8FFF7B4FCDDE90D010C9A00914C
:104260004FF0000BB946109221070FD4009A4A452F
:1042700003DA914601E0A9F10109B9F1010F05DD69
:10428000109AA9F10101515C3029F4D0B84202DA48
:1042900010F1040F03DA0121CDE9011010E000282C
:1042A00003DC8344A9EB000102E0411C494500DD29
:1042B0008946A0EB0B00401C01904FF0004002909B
:1042C000200705D40198484502DB4FF0FF300190EC
:1042D00000208DF84B0002980DF14B07B0F1004F14
:1042E00025D002200C902B200D90029800280CDA8B
:1042F000404202902D200D9007E00A210298FCF721
:10430000DBF93031029007F8011D0C99481E0C9022
:104310000029F2DC02980028EFD1791E0D98087070
:10432000307800F0200040F0450007F8020D11A899
:10433000C01BC01D02901398007800B1012000EB53
:104340000901019801EBE071029801440398401AB9
:10435000401E0390E00306D453462146179A039863
:1043600000F05CF805441398007818B1524617998C
:1043700090476D1CE00323D553462146179A0398B6
:1043800000F04CF805441BE0BBF1000F07DB009880
:10439000584504DD1098179910F80B0001E01799A3
:1043A00030205246904701980BF1010B401E05F159
:1043B0000105019004D12E205246179990476D1C9B
:1043C000B9F10001A9F10109DEDC05E017F8010BE4
:1043D0005246179990476D1C0299481E0290002979
:1043E000F4DC53462146179A03989EE62D00000000
:1043F0002B000000200000002DE9F04104460025BC
:104400001E461746880404D405E039462020B047EC
:104410006D1C641EF9D52846BDE8F0812DE9F041F8
:10442000044600251E469046C80301D5302700E00B
:104430002027880404D505E041463846B0476D1C66
:10444000641EF9D52846BDE8F0810A68531C0B604C
:104450001070704730B541F288349FB02046FDF7A8
:104460005BF828A30DF14C0C0FCB8CE80F004FF438
:104470007A752B460E2213A92648FEF7A3FC00F0FE
:1044800003FC202224A10BA8FBF780FE2B461D2253
:104490000BA92048FEF796FC00F0F6FB26A00DF1D4
:1044A0005C0C0FC88CE80F002B460E2217A9194888
:1044B000FEF788FC00F0E8FB23A10DF16C0C0FC99E
:1044C0008CE80F002B460F221BA91248FEF77AFC3E
:1044D00000F0DAFB2C2220A16846FBF757FE694664
:1044E00028A0FFF729FB23462A2269460948FEF740
:1044F00069FC00F0C9FB00F0CFF900F023FA1FB00F
:1045000030BD000041542B43574D4F44453D310DC4
:104510000A000000400D002041542B43574A4150EF
:104520003D226D617838222C2231323334353637D2
:1045300038220D0A0000000041542B4349504D55CC
:10454000583D300D0A00000041542B4349504D4F57
:1045500044453D310D0A000041542B43495053540A
:104560004152543D22544350222C223139322E31B3
:1045700036382E37362E313836222C383038380D32
:104580000A0000002573000013B54FF6FF730122E7
:1045900069460248FEF716FC00981CBDF80C002086
:1045A00008B5FDF77BFAFEF7DFFFFEF717FEFEF713
:1045B000FFFDFEF795FEFEF753FFFEF7C7FEFEF781
:1045C00001FFFEF793FFFEF7ADFFFEF7B3FDFEF729
:1045D00069FFFEF765FE9048FDF7FCFE8F48FDF78A
:1045E000F9FE8F48FDF7F6FE04218E48FEF742F9EA
:1045F00004218B48FEF73EF98C4C8B4801226169FF
:1046000001448B48FEF798FBDFF828A2A16801223D
:1046100051448948FEF790FB8848FCF767FA1E2250
:104620000AF5C8618548FCF735FC8448FCF7B8FCFE
:10463000834800F0E3F90026FFF70CFF5320FCF756
:104640001BFADFF800B24FF47A79002700207E4A87
:10465000014600BF01EB410302EB4303491C5B88A9
:104660000A291844F6DBFBF7CEFF0022774BFBF755
:104670005BFF0022764BFBF757FF4FF066352A466B
:10468000744BFBF7DFFEFBF7FBFFFBF7E6FF2A4669
:10469000714BFBF7D4FE714A714BFBF745FF0022CB
:1046A000704BFBF728FEFBF7EBFF206260622421D2
:1046B000002000F047FA0097606AFBF7CEFF024641
:1046C0000B4669A16846FFF747FA6A4D0123684621
:1046D000D5E9001200F0C2FA594800F039FA202159
:1046E0005846FDF735F86449206A884202DA634982
:1046F000884210DC4120FCF7BFF961A16846FFF752
:104700002BFAD5E900120123684600F0A7FA4C48BD
:1047100000F01EFA02E05320FCF7AEF9206A5B4974
:104720008046FBF7B0FD4FF40005A84202DB4FF0D6
:10473000824007E056494046FBF7A5FDA84201DA52
:104740004FF07E502062002E05DC5249FBF7A1FDA0
:10475000FBF76AFFE0614FF4FA70761EFCF7DCFEAF
:104760005546A04608E02918401CC8F80C004B46E6
:1047700001222F48FEF726FBD8E902108842F2DB1F
:1047800088420CDDC8F80C7009E027494B4601440B
:10479000401CC8F8180001222748FEF713FBD8E98F
:1047A00005108842F1DB0146D8F81400814201DD92
:1047B000C8F81870D8F81000D8F8081088421BDA2A
:1047C000295C102912D12844017916290ED141788B
:1047D00011290BD18078122808D120215846FCF7E6
:1047E000B7FF4FF4A5700326C8F81C00D8F81000D6
:1047F000401CC8F81000DFE7884201DDC8F81070DF
:104800004FF4FA752846FCF787FE00F063F8284657
:10481000FCF782FE1AE70000900B0020680C0020D5
:10482000200C0020D80B00206C0700201000002076
:10483000F80C00204C040020400D0020C80A002085
:104840003C0B0020001801408C0A0020000024408E
:1048500000FEAF4066660A406666F63F22FDF675CA
:10486000E09C713F0000394054656D3A252E326658
:1048700000000000000000200000F0410000D841CE
:104880007761726E696E6721000000000000F841D8
:104890000000C0410000204270B50B4C0B4D4FF49E
:1048A0007A7607E02918401CA061334601220848A7
:1048B000FEF788FAD4E905108842F3DB884201DD6F
:1048C0000020A06170BD0000100000206C070020D7
:1048D000400D002000B58DB034216846FBF76FFC19
:1048E0001048406AFBF7B9FE02460B460EA1684627
:1048F000FFF732F969460FA0FFF71EF96846FBF78C
:1049000069FC01460CA0FFF717F96846FBF762FC4B
:1049100082B24FF47A7369460948FEF753FA0DB034
:1049200000BD0000100000205254656D3A252E3263
:1049300066000000257300006C656E3A2564000077
:10494000400D002000B599B00AA16846FFF704F9B0
:104950004CF25033642269460A48FEF733FA69463E
:1049600009A0FFF7E9F800F08FF9FFF795FF19B0FC
:1049700000BD000041542B43495053454E440D0A9D
:1049800000000000400D00200A74686973206973FC
:1049900020636D64203A2573200A000070B58028DA
:1049A00013D2402911D20B4B012401F007051E79C7
:1049B000AC40094BC90800EBC1100EB132B101E0A7
:1049C000012A03D0195CA143195470BD195C21431D
:1049D000FAE70000080000204C00002010B5064A4D
:1049E00000214FF4806328B1FF245454491C99429C
:1049F000F9D310BD0024F8E74C00002070B505463F
:104A00006420FCF789FDAE21284600F019F9044620
:104A10002021284600F014F904441021284600F013
:104A20000FF90444B021284600F00AF90444C821D3
:104A3000284600F005F904440021284600F000F95A
:104A400004441021284600F0FBF804444021284685
:104A500000F0F6F804448121284600F0F1F80444FF
:104A6000FF21284600F0ECF80444A121284600F07C
:104A7000E7F80444A621284600F0E2F80444A821FF
:104A8000284600F0DDF804443F21284600F0D8F81D
:104A90000444A421284600F0D3F80444D321284636
:104AA00000F0CEF804440021284600F0C9F8044480
:104AB000D521284600F0C4F80444F021284600F02F
:104AC000BFF80444D921284600F0BAF80444222152
:104AD000284600F0B5F80444DA21284600F0B0F882
:104AE00004441221284600F0ABF80444DB21284698
:104AF00000F0A6F804442021284600F0A1F8044460
:104B00008D21284600F09CF804441421284600F02A
:104B100097F80444AF21284600F092F8E04201D013
:104B2000012070BD0020FFF759FF284600F010F863
:104B3000034800210180418001214171002070BDA6
:104B400008000020014A10805180704708000020B2
:104B50002DE9FE4300246425114F8046802600BFC6
:104B600004F1B000C1B2404600F06AF800214046AE
:104B700000F066F81021404600F062F807EBC41020
:104B8000CDE9000601234022782102954046FCF73A
:104B9000B7FE641CE4B2082CE2D3BDE8FE8300003B
:104BA0004C0000202DE9FF4F834624489246CEB2A8
:104BB00002883244802A06D281464088C1F3072702
:104BC0003844402803D3002004B0BDE8F08F00250E
:104BD00028E000BFABF1200000FB075000243AF8AA
:104BE00010801CE008FA04F0000409D599F80210BE
:104BF00099F8000029442044C9B2C0B2039A0BE0DE
:104C00000398C0B15FF0000299F8021099F8000013
:104C100029442044C9B2C0B2FFF7C0FE641CA642BA
:104C2000E0D86D1CAF42D5D8B9F8001058463144D1
:104C3000A9F80010C8E70122E6E7000008000020FC
:104C400003B583B00A23012204A98DE80E001346A0
:104C500000227821FCF754FE05B000BDF0B51D46DA
:104C60000E46174604460AE02B463A463146FFF701
:104C700099FF2178884201D0C8B2F0BD641C207829
:104C80000028F1D1C0B2F0BD02490020401C88428A
:104C9000FCDB7047801D2C040000000000000000B9
:104CA0000000000000000000000000000000000004
:104CB0000000000000000000000000000000000CE8
:104CC000000C000C000C000C000C000C000C000C84
:104CD000000C000C0000000C000C000000000000A4
:104CE0000000001B001B001B001B001B000000003D
:104CF00000000000000000000000000000000000B4
:104D00000000000000008019801980198019C07F00
:104D1000C07F80190033C07FC07F00330033003371
:104D200000330000000000000000001E003F8075FE
:104D300080650074003C001E00078005806580656A
:104D40008075003F001E0004000400000000007099
:104D500000D840D8C0D880D900730006000C801B52
:104D6000C036C066C046C0068003000000000000D8
:104D70000000001E003F003300330033001E000C13
:104D8000C03CC066806380618063C03E801C0000C0
:104D9000000000000000000C000C000C000C000CD7
:104DA0000000000000000000000000000000000003
:104DB0000000000000000000800000010003000669
:104DC00000060004000C000C000C000C000C000C91
:104DD000000400060006000300018000002000100F
:104DE0000018000C000C0004000600060006000677
:104DF000000600060004000C000C00180010002043
:104E00000000000C002D003F001E003300000000D9
:104E10000000000000000000000000000000000092
:104E200000000000000000000000000C000C000C5E
:104E3000000CC0FFC0FF000C000C000C000C0000B8
:104E40000000000000000000000000000000000062
:104E50000000000000000000000000000000000052
:104E60000000000C000C000400040008000000001A
:104E70000000000000000000000000000000001E14
:104E8000001E000000000000000000000000000004
:104E90000000000000000000000000000000000012
:104EA00000000000000000000000000C000C0000EA
:104EB00000000000000000030003000300060006DD
:104EC00000060006000C000C000C000C0018001876
:104ED00000180000000000000000001E003F00332A
:104EE000806180618061806D806D806180618061A2
:104EF0000033003F001E000000000000000000061C
:104F0000000E001E00360026000600060006000601
:104F10000006000600060006000600000000000073
:104F20000000001E003F80738061806180010003EB
:104F30000006000C001800300060807F807F0000B9
:104F4000000000000000001C003E0063006300033E
:104F5000000E000E00038001800180618073003F1D
:104F6000001E00000000000000000006000E000E01
:104F7000001E001E0016003600360066807F807F0F
:104F80000006000600060000000000000000007F90
:104F9000007F006000600060006E007F8063800121
:104FA000800180618073003F001E0000000000004F
:104FB0000000001E003F803380610060006E007FB3
:104FC00080738061806180618033003F001E00003B
:104FD000000000000000807F807F8001000300034C
:104FE00000060006000C000C000C00080018001859
:104FF00000180000000000000000001E003F806359
:10500000806180610021001E003F806180618061BD
:105010008061003F001E0000000000000000001E34
:10502000003F00738061806180618073803F801DDC
:10503000800180610073003F001E0000000000003E
:1050400000000000000000000000000C000C000048
:1050500000000000000000000000000C000C000038
:105060000000000000000000000000000000000040
:10507000000C000C00000000000000000000000C0C
:10508000000C000400040008000000000000000004
:1050900080008003000E003800600038000E80039E
:1050A0008000000000000000000000000000000080
:1050B000000000000000807F807F00000000807FF3
:1050C000807F0000000000000000000000000000E1
:1050D000000000000000000000400070001C0007FD
:1050E00080010007001C007000400000000000006C
:1050F000000000000000001F803FC071C060C000C1
:10510000C00180030007000E000C000C0000000C22
:10511000000C0000000000000000001E003F803175
:1051200080718063806F806D806D806F80670060AC
:105130000032003E001C0000000000000000000ED5
:10514000000E001B001B001B001B80318031803FC4
:10515000803F8031C060C060C0600000000000007F
:105160000000007C007E0063006300630063007E3B
:10517000007E0063806180618063007F007E0000AC
:10518000000000000000001E003F803180610060D0
:105190000060006000600060006080618031003F5E
:1051A000001E0000000000000000007C007F006383
:1051B0008063806180618061806180618061006363
:1051C0000063007E007C0000000000000000807F83
:1051D000807F0060006000600060007F007F0060F2
:1051E000006000600060807F807F000000000000A1
:1051F0000000807F807F0060006000600060007FB2
:10520000007F0060006000600060006000600000DF
:10521000000000000000001E003F8031806100603F
:105220000060006080638063806180618031803FC6
:10523000001E0000000000000000806180618061AD
:10524000806180618061807F807F8061806180611A
:105250008061806180610000000000000000003F6C
:10526000003F000C000C000C000C000C000C000CAB
:10527000000C000C000C003F003F0000000000008C
:105280000000800180018001800180018001800197
:1052900080018001806180618073003F001E0000FA
:1052A000000000000000C0608061006300660066CE
:1052B000006C0078007C006600660063806180619D
:1052C000C06000000000000000000060006000609E
:1052D00000600060006000600060006000600060CE
:1052E0000060807F807F0000000000000000C0712F
:1052F000C071C07BC07AC06AC06AC06EC064C06042
:10530000C060C060C060C060C060000000000000FD
:10531000000080718071807980798079806D806DE6
:10532000806D806580678067806780638063000030
:10533000000000000000001E003F0033806180611B
:105340008061806180618061806180610033003FA5
:10535000001E0000000000000000007E007F80634F
:105360008061806180618063007F007E00600060FA
:105370000060006000600000000000000000001EEF
:10538000003F003380618061806180618061806165
:10539000806580670033803F401E000000000000F1
:1053A0000000007E007F8063806180618063007FF9
:1053B000007E00660063006380618061C060000061
:1053C000000000000000000E001F8031803100301E
:1053D0000038001E00078003806180618031003F3B
:1053E000001E0000000000000000C0FFC0FF000C15
:1053F000000C000C000C000C000C000C000C000C4D
:10540000000C000C000C0000000000000000806197
:105410008061806180618061806180618061806184
:10542000806180618073003F001E0000000000006A
:105430000000C060C060C060803180318031001BDE
:10544000001B001B001B000E000E000E00040000DD
:10545000000000000000C0C0C0C0C0C0C0C0C0C0CC
:10546000C0CC804C804C805E8052805280738061C2
:1054700080610000000000000000C0C0806080610A
:105480000033003B001E000C000C001E001F003B00
:1054900080718061C0C00000000000000000C0C03A
:1054A0008061806100330033001E001E000C000C80
:1054B000000C000C000C000C000C000000000000B0
:1054C0000000803F803F8001000300030006000CC5
:1054D000000C0018001800300060807F807F000002
:1054E00000000000000F000F000C000C000C000C6E
:1054F000000C000C000C000C000C000C000C000C4C
:10550000000C000C000F000F00000018001800181D
:10551000000C000C000C000C000600060006000643
:10552000000300030003000000000000001E001E36
:10553000000600060006000600060006000600063B
:10554000000600060006000600060006001E001EFB
:105550000000000C000C001E0012003300338061BC
:10556000806100000000000000000000000000005A
:10557000000000000000000000000000000000002B
:10558000000000000000000000000000000000001B
:1055900000000000E0FF0000000000380018000CD0
:1055A00000000000000000000000000000000000FB
:1055B00000000000000000000000000000000000EB
:1055C000000000000000001F803F80618001801FFC
:1055D000803F80618063807FC03800000000000051
:1055E00000000060006000600060006E007F80735B
:1055F00080618061806180618073007F006E000047
:105600000000000000000000000000000000001E7C
:10561000003F807380610060006080618073003FA4
:10562000001E0000000000000000800180018001D9
:105630008001801D803F8073806180618061806116
:105640008073803F801D000000000000000000000B
:10565000000000000000001E003F00738061807F9A
:10566000807F00608071003F001E0000000000008D
:105670000000C007C00F000C000C807F807F000C72
:10568000000C000C000C000C000C000C000C0000C6
:10569000000000000000000000000000801D803FAE
:1056A000807380618061806180618073803F801D34
:1056B00080018063007F003E0000006000600060A9
:1056C0000060006F807F8071806180618061806197
:1056D0008061806180610000000000000000000621
:1056E000000600000000003E003E00060006000626
:1056F000000600060006000600060000000000008C
:105700000006000600000000003E003E0006000605
:105710000006000600060006000600060006004619
:10572000007E003C0000006000600060006080615E
:1057300000630066006C007C00760063006380619B
:10574000C0600000000000000000003E003E0006B7
:105750000006000600060006000600060006000619
:105760000006000600060000000000000000000027
:1057700000000000000080DDC0FFC0CEC0CCC0CC67
:10578000C0CCC0CCC0CCC0CCC0CC0000000000005D
:1057900000000000000000000000006F807F8071AA
:1057A00080618061806180618061806180610000D2
:1057B0000000000000000000000000000000001ECB
:1057C000003F807380618061806180618073003FF1
:1057D000001E0000000000000000000000000000AB
:1057E000006E007F80738061806180618061807362
:1057F000007F006E0060006000600060000000003C
:1058000000000000801D803F8073806180618061A6
:1058100080618073803F801D800180018001800154
:10582000000000000000000000000067803F003919
:105830000030003000300030003000300030000018
:105840000000000000000000000000000000001E3A
:10585000803F80610060007F803F80018061007F29
:10586000001E0000000000000000000000080018FA
:105870000018007F007F001800180018001800189A
:105880000018801F800F00000000000000000000D2
:1058900000000000000080618061806180618061A3
:1058A000806180618063807F803D00000000000097
:1058B00000000000000000000000C0608031803166
:1058C0008031001B001B001B000E000E00060000B4
:1058D000000000000000000000000000000080DD6B
:1058E00080DD80DD005500550055007700770022EF
:1058F0000022000000000000000000000000000086
:105900000000806100330033001E000C000C001EFC
:105910000033003380610000000000000000000040
:105920000000000080618061803100330033001B83
:10593000001B001B000E000E000E001C007C0070FF
:1059400000000000000000000000C07FC07F800158
:1059500000030006000C00180030C07FC07F00006C
:105960000000000080038007000600060006000615
:105970000006000E001C001C000E000600060006BB
:1059800000060006800780030006000600060006E9
:1059900000060006000600060006000600060006D7
:1059A0000006000600060006000600060038003C5F
:1059B000000C000C000C000C000C000E000700078F
:1059C000000E000C000C000C000C000C003C003819
:1059D000000000000000000000000000000080380F
:1059E000807F004700000000000000000000000071
:1059F00000000000010202030405060708090A0B63
:105A00000C0D0E0F10100102020304050607080911
:105A10000A0B0C0D0E0F101000000000000000001B
:105A20000102030406070809000000000102030444
:105A3000505A0008000000204C000000A03B000865
:105A40009C5A00084C0000203C110000B03B0008AC
:105A50000B120000984C000800000000000000003D
:105A60000000000001000000000000000000000035
:105A7000000000000000000000000000080100001D
:105A80000000000000000000010000001000000005
:0C5A9000000000000024F40000000000F2
:0400000508000131BD
:00000001FF
